:020000040800F2
:1000000000500020590D0008CD0C0008D30C00084A
:10001000D90C0008DF0C0008E50C00080000000007
:10002000000000000000000000000000EB0C0008D1
:10003000F70C000800000000030D00080F0D000879
:10004000A10D0008A10D0008A10D0008A10D0008D8
:10005000A10D0008A10D00081B0D0008A10D00084E
:10006000A10D0008A10D0008A10D0008A10D0008B8
:10007000A10D0008A10D0008A10D0008A10D0008A8
:10008000290D0008A10D0008A10D0008A10D000810
:10009000A10D0008A10D0008A10D00083D0D0008EC
:1000A000A10D0008A10D0008A10D0008A10D000878
:1000B000A10D0008A10D0008A10D0008A10D000868
:1000C000A10D0008A10D0008A10D0008A10D000858
:1000D000A10D0008A10D0008A10D0008A10D000848
:1000E000A10D0008A10D0008A10D000800000000EE
:1000F0000000000000000000000000000000000000
:0C01000000000000000000005FF808F1A3
:10010C0010B5054C237833B9044B13B10448AFF345
:10011C0000800123237010BD380600200000000071
:10012C00343A000808B5034B1BB103490348AFF33D
:10013C00008008BD000000003C060020343A000896
:10014C00034613F8012B002AFBD1181A013870470B
:10015C0080B582B000AF78607B681B68002B04D13F
:10016C00012202211D4801F02FFD7B6804331B681E
:10017C00002B04D101222021184801F025FD7B68B9
:10018C0008331B68002B05D101224FF48061134802
:10019C0001F01AFD7B680C331B68002B04D1012283
:1001AC0010210E4801F010FD7B6810331B68002BEA
:1001BC0005D101224FF40061084801F005FD7B6870
:1001CC0014331B68002B05D101224FF480510448D5
:1001DC0001F0FAFC00BF0837BD4680BD000C0140A1
:1001EC000008014080B500AF01222021054801F034
:1001FC00EBFC01224FF48051034801F0E5FC00BFF9
:10020C0080BD00BF000C01400008014080B500AF6C
:10021C0001220221054801F0D7FC01224FF4806134
:10022C00024801F0D1FC00BF80BD00BF000C0140B2
:10023C0080B500AF00220221104801F0C5FC00225D
:10024C0020210E4801F0C0FC00224FF480610B48C5
:10025C0001F0BAFC00221021084801F0B5FC002284
:10026C004FF40061054801F0AFFC00224FF48051BF
:10027C00034801F0A9FC00BF80BD00BF000C014089
:10028C000008014080B582B000AF0346FB80FB88BC
:10029C00202B08D10B4B00221A7000F0D5FD034621
:1002AC00094A13600AE0FB88012B07D1074B002297
:1002BC001A7000F0C9FD0346054A136000BF0837E9
:1002CC00BD4680BD28060020800B0020270600209C
:1002DC007C0B002080B582B000AF78600C22044902
:1002EC00044802F0F0FE00BF0837BD4680BD00BFD9
:1002FC0070070020D806002080B582B000AF094AF4
:10030C003B4692E8030018600433197039464FF4E9
:10031C007A730522044802F053FE00BF0837BD462D
:10032C0080BD00BF4C3A0008D806002080B588B0CC
:10033C0002AF00F031FD00F019FA00F01BFB00F0E9
:10034C00FBFA00F0A1FA00F0CDFA00F05FFA00F031
:10035C007BFD78610023FB740023BB740023FB60DE
:10036C000C22A549A54802F0AEFE4E2300930223B1
:10037C001022A349A34803F007FA00220021A14848
:10038C0003F0D0FAA0499F4803F0F6FA4FF4FA6054
:10039C0000F064FD9B4803F006FB4FF4FA633B60EE
:1003AC009A4B1B78002B1DD100F04EFD0246984B4A
:1003BC001B68D31A632B15D9944B01221A704FF476
:1003CC000051944801F018FC934B1B78022B03D17D
:1003DC00914B00221A7005E08F4B1B780133DAB277
:1003EC008D4B1A708C4B1B78002BD9D1002200211D
:1003FC00844803F097FA834803F0D5FA0023BB60D6
:10040C0057E17D4AFB6813441A78844B1A704E23CB
:10041C000093022310227A497A4803F0B5F9BB689D
:10042C001F2B0BDD00220021764803F07BFA754868
:10043C0003F0B9FA4FF0FF33BB6037E1BB680F2B09
:10044C0011DDBB68DBB2103BDBB2012219466D48F3
:10045C0003F068FA684AFB6813441B78194669482C
:10046C0003F02EFA0EE0BB68DBB200221946654899
:10047C0003F058FA604AFB6813441B78194661482C
:10048C0003F01EFA654B1B78402B0CD9634B1B7881
:10049C005A2B08D8614B1B782033DAB25F4B1A7099
:1004AC000123FB740FE05D4B1B782F2B0BD95B4B9F
:1004BC001B78392B07D80123BB74584B1B7831336D
:1004CC00DAB2564B1A7000237B605BE0544A7B68AF
:1004DC0013441A78514B1B789A4250D17A681346C0
:1004EC005B001344DB004F4A13444F4A1360FB7C00
:1004FC00012B11D101E0FFF775FE00F0A5FC0246BF
:10050C007B69D21A3B68D90F0B445B109A42F2D923
:10051C0000F09AFC786119E0BB7C012B16D101E04C
:10052C00FFF774FE00F090FC02467B69D21A3B6820
:10053C00D90F0B445B109A42F2D900F085FC78611C
:10054C0004E0394B1B681846FFF702FE00F07CFCF8
:10055C0002467B69D21A3B689A42F2D900F074FCCD
:10056C00786101E0FFF764FE00F06EFC02467B69E7
:10057C00D31A322BF6D900F067FC786105E07B6862
:10058C0001337B607B683E2BA0D9FB680133FB6099
:10059C001E4B1B78002B1DD100F056FC02461C4B49
:1005AC001B68D31A632B15D9184B01221A704FF400
:1005BC000051184801F020FB174B1B78022B03D17C
:1005CC00154B00221A7005E0134B1B780133DAB27D
:1005DC00114B1A70104B1B78012B29D100220021D2
:1005EC00084803F09FF9074803F0DDF90F49054867
:1005FC0003F0C2F965E000BF70070020D8060020A8
:10060C008406002064070020543A000827060020C6
:10061C007C0B002000100140790B0020700B002097
:10062C00E805002000000020740B0020643A00084C
:10063C00434B1B78002B1DD100F006FC0246414BAE
:10064C001B68D31A632B15D93D4B01221A704FF43A
:10065C0000513D4801F0D0FA3C4B1B78022B03D1E2
:10066C003A4B00221A7005E0384B1B780133DAB292
:10067C00364B1A70354B1B78012B01D1FFF73CFE22
:10068C003348FFF75DFD0246FB689A420ED100230A
:10069C00FB60002200212F4803F044F92D4803F0A1
:1006AC0082F92D492B4803F067F90AE0BB68013346
:1006BC00BB602748FFF744FD0246BB689A423FF6F1
:1006CC00A0AE38E000220021224803F02BF921488B
:1006DC0003F069F921491F4803F04EF91B4B1B78B5
:1006EC00012B01D1FFF708FE1D4B1B78002B1DD1F0
:1006FC0000F0AAFB02461B4B1B68D31A632B15D9BF
:10070C00174B01221A704FF400510F4801F074FA84
:10071C00154B1B78022B03D1134B00221A7005E0EA
:10072C00114B1B780133DAB20F4B1A700E4B1B783E
:10073C00002B00D100BF0C4B1B78012BC2D02FE635
:10074C0028060020800B002000100140780B0020B0
:10075C0070070020640700206C3A0008643A000817
:10076C00270600207C0B0020790B002080B594B06C
:10077C0000AF07F1280328220021184603F027F9BF
:10078C0007F1140300221A605A609A60DA601A6149
:10079C003B1D00221A605A609A60DA600223BB6229
:1007AC000123BB631023FB6300237B6407F1280345
:1007BC00184601F0EFFE0346002B01D000F05AF969
:1007CC000F237B610023BB610023FB6100233B6291
:1007DC0000237B6207F114030021184602F05CF938
:1007EC000346002B01D000F045F902237B60002367
:1007FC00FB603B1D184602F0DDFA0346002B01D0CE
:10080C0000F038F900BF5037BD4680BD80B584B0CC
:10081C0000AF3B1D00221A605A609A60184B194AAF
:10082C001A60174B00229A60154B00221A73144B56
:10083C0000221A75124B4FF46022DA61104B002221
:10084C005A600F4B01221A610D4800F02BFB034636
:10085C00002B01D000F00EF907237B600123BB6055
:10086C000023FB603B1D1946054800F0F3FB0346D3
:10087C00002B01D000F0FEF800BF1037BD4680BD44
:10088C00540600200024014080B500AF124B134ADF
:10089C001A60114B124A5A600F4B00229A600E4B91
:1008AC000022DA600C4B4FF480421A610A4B002292
:1008BC005A61094B00229A61074B0022DA61064B00
:1008CC0000221A62044801F0C9F90346002B01D03A
:1008DC0000F0D0F800BF80BD84060020005400401A
:1008EC00A086010080B500AF114B124A1A60104B64
:1008FC004FF416525A600E4B00229A600C4B002299
:10090C00DA600B4B00221A61094B0C225A61084B1E
:10091C0000229A61064B0022DA61054802F000FBC6
:10092C000346002B01D000F0A5F800BF80BD00BF2E
:10093C00D80600200044004080B582B000AF0C4BBC
:10094C005B690B4A43F001035361094B5B6903F08C
:10095C0001037B607B6800220021102000F08BFDDE
:10096C00102000F0A4FD00BF0837BD4680BD00BFBD
:10097C000010024080B588B000AF07F110030022D0
:10098C001A605A609A60DA60364B9B69354A43F0BC
:10099C0020039361334B9B6903F02003FB60FB68DE
:1009AC00304B9B692F4A43F0040393612D4B9B6999
:1009BC0003F00403BB60BB682A4B9B69294A43F0D4
:1009CC0008039361274B9B6903F008037B607B68EA
:1009DC00002241F63241244801F0F6F800224FF48F
:1009EC008051224801F0F0F821233B61204B7B61C0
:1009FC000023BB6107F1100319461C4800F060FF8F
:100A0C0041F632433B6101237B610023BB6102232E
:100A1C00FB6107F110031946134800F051FF4FF426
:100A2C0080533B6101237B610023BB610223FB618B
:100A3C0007F1100319460D4800F042FF0022012176
:100A4C00062000F018FD062000F031FD00220221E6
:100A5C00172000F010FD172000F029FD00BF2037F3
:100A6C00BD4680BD00100240000C01400008014052
:100A7C000000111080B400AF72B600BFFEE700009A
:100A8C0080B485B000AF154B9B69144A43F0010349
:100A9C009361124B9B6903F00103BB60BB680F4B66
:100AAC00DB690E4A43F08053D3610C4BDB6903F0D6
:100ABC0080537B607B680A4B5B68FB60FB6823F0B0
:100ACC00E063FB60FB6843F00073FB60044AFB6867
:100ADC00536000BF1437BD4680BC70470010024005
:100AEC000000014080B588B000AF786007F11003BA
:100AFC0000221A605A609A60DA607B681B68144A9C
:100B0C00934221D1134B9B69124A43F400739361B6
:100B1C00104B9B6903F40073FB60FB680D4B9B69E6
:100B2C000C4A43F0040393610A4B9B6903F00403E2
:100B3C00BB60BB6880233B6103237B6107F110031F
:100B4C001946054800F0BCFE00BF2037BD4680BDED
:100B5C0000240140001002400008014080B588B01C
:100B6C0000AF786007F1100300221A605A609A6097
:100B7C00DA607B681B68154A934223D1144B9B693E
:100B8C00134A43F008039361114B9B6903F008036C
:100B9C00FB60FB68C0233B6112237B610323FB6179
:100BAC0007F1100319460B4800F08AFE084BDB696D
:100BBC00074A43F40013D361054BDB6903F40013BC
:100BCC00BB60BB6800BF2037BD4680BD00540040F1
:100BDC0000100240000C014080B588B000AF786076
:100BEC0007F1100300221A605A609A60DA607B6881
:100BFC001B682E4A934255D12D4BDB692C4A43F48A
:100C0C000033D3612A4BDB6903F40033FB60FB68D0
:100C1C00274B9B69264A43F004039361244B9B6941
:100C2C0003F00403BB60BB6804233B6102237B61BC
:100C3C000323FB6107F1100319461E4800F040FE28
:100C4C0008233B6100237B610023BB6107F1100388
:100C5C001946184800F034FE174B184A1A60164B08
:100C6C0000225A60144B00229A60134B8022DA60E7
:100C7C00114B00221A61104B00225A610E4B0022BC
:100C8C009A610D4B0022DA610B4800F02BFC0346F5
:100C9C00002B01D0FFF7EEFE7B68074ADA63064AA9
:100CAC007B68536200BF2037BD4680BD00440040C6
:100CBC000010024000080140200700206C00024098
:100CCC0080B400AFFEE780B400AFFEE780B400AFA5
:100CDC00FEE780B400AFFEE780B400AFFEE780B45F
:100CEC0000AF00BFBD4680BC704780B400AF00BFF2
:100CFC00BD4680BC704780B400AF00BFBD4680BC11
:100D0C00704780B500AF00F08DF800BF80BD80B596
:100D1C0000AF012000F08AFF00BF80BD80B500AF9E
:100D2C00024800F099FC00BF80BD00BF20070020E6
:100D3C0080B500AF202000F079FF00BF80BD80B4EB
:100D4C0000AF00BFBD4680BC70470000FFF7F7FF47
:100D5C000B480C490C4A002302E0D458C45004330D
:100D6C00C4188C42F9D3094A094C002301E01360E2
:100D7C000432A242FBD302F033FEFFF7D7FA7047DE
:100D8C000000002038060020B03A00083806002089
:100D9C00880B0020FEE7000080B500AF084B1B68F5
:100DAC00074A43F010031360032000F059FB0F2097
:100DBC0000F008F8FFF764FE0023184680BD00BF62
:100DCC000020024080B582B000AF7860124B1A68E8
:100DDC00124B1B7819464FF47A73B3FBF1F3B2FB49
:100DEC00F3F3184600F071FB0346002B01D00123EE
:100DFC000EE07B680F2B0AD8002279684FF0FF3089
:100E0C0000F039FB064A7B681360002300E00123E5
:100E1C0018460837BD4680BD2C060020340600203D
:100E2C003006002080B400AF054B1B781A46054BEA
:100E3C001B681344034A136000BFBD4680BC704757
:100E4C0034060020840B002080B400AF024B1B68DA
:100E5C001846BD4680BC7047840B002080B584B01A
:100E6C0000AF7860FFF7F0FFB8607B68FB60FB6851
:100E7C00B3F1FF3F05D00A4B1B781A46FB681344AD
:100E8C00FB6000BFFFF7E0FF0246BB68D31AFA68AD
:100E9C009A42F7D800BF00BF1037BD4680BD00BFD7
:100EAC003406002080B586B000AF78600023FB7557
:100EBC0000233B610023BB600023FB607B68002B9D
:100ECC0001D10123BEE07B689B68002B7B689B6A89
:100EDC00002B09D17B680022DA627B68002283F840
:100EEC0024207868FFF7FEFD786800F0ABF9034624
:100EFC00FB757B689B6A03F01003002B40F0998014
:100F0C00FB7D002B40F095807B689B6A23F4885313
:100F1C0023F0020343F002027B689A627B685A68F2
:100F2C007B68DB691A437B681B7B5B001343BA68E5
:100F3C001343BB607B689B68B3F5807F03D07B68F1
:100F4C009B68012B02D14FF4807300E000233A69B7
:100F5C0013433B617B681B7D012B19D17B681B7B89
:100F6C00002B09D17B689B69013B5A033B691343F6
:100F7C0043F400633B610BE07B689B6A43F0200207
:100F8C007B689A627B68DB6A43F001027B68DA62F9
:100F9C007B681B685B6823F469417B681B683A6952
:100FAC000A435A607B681B689A68284B13407A681E
:100FBC001268B9680B4393607B689B68B3F5807FBC
:100FCC0003D07B689B68012B04D17B681B69013BB8
:100FDC001B05FB607B681B68DB6A23F470017B6874
:100FEC001B68FA680A43DA627B681B689A68184BBC
:100FFC001340BA689A420BD17B680022DA627B6894
:10100C009B6A23F0030343F001027B689A6218E0A9
:10101C007B689B6A23F0120343F010027B689A6290
:10102C007B68DB6A43F001027B68DA620123FB75A3
:10103C0007E07B689B6A43F010027B689A6201238D
:10104C00FB75FB7D18461837BD4680BDFDF7E1FFEB
:10105C00FE0E1FFF80B485B000AF786039600023AE
:10106C00FB730023BB607B6893F82430012B01D108
:10107C000223DCE07B68012283F824203B685B6858
:10108C00062B1CD87B681B68596B3B685A68134647
:10109C009B001344053B1F2202FA03F3DB43194068
:1010AC003B6818683B685A6813469B001344053B21
:1010BC0000FA03F27B681B680A435A633CE03B6806
:1010CC005B680C2B1CD87B681B68196B3B685A68D7
:1010DC0013469B001344233B1F2202FA03F3DB430A
:1010EC0019403B6818683B685A6813469B001344C8
:1010FC00233B00FA03F27B681B680A431A631BE06C
:10110C007B681B68D96A3B685A6813469B0013447A
:10111C00413B1F2202FA03F3DB4319403B6818687A
:10112C003B685A6813469B001344413B00FA03F298
:10113C007B681B680A43DA623B681B68092B1CD965
:10114C007B681B68D9683B681A6813465B001344BC
:10115C001E3B072202FA03F3DB4319403B689868F5
:10116C003B681A6813465B0013441E3B00FA03F2FB
:10117C007B681B680A43DA6019E07B681B68196995
:10118C003B681A6813465B001344072202FA03F308
:10119C00DB4319403B6898683B681A6813465B0050
:1011AC00134400FA03F27B681B680A431A613B681C
:1011BC001B68102B03D03B681B68112B32D17B684A
:1011CC001B681D4A934225D17B681B689B6803F4FE
:1011DC000003002B26D17B681B689A687B681B6810
:1011EC0042F400029A603B681B68102B1AD1134B17
:1011FC001B68134AA2FB03239A0C13469B0013444F
:10120C005B00BB6002E0BB68013BBB60BB68002BB2
:10121C00F9D107E07B689B6A43F020027B689A62F5
:10122C000123FB737B68002283F82420FB7B184688
:10123C001437BD4680BC7047002401402C060020AA
:10124C0083DE1B4380B584B000AF78600023FB6065
:10125C007B681B689B6803F00103012B2ED17B6814
:10126C001B689A687B681B6822F001029A60FFF782
:10127C00EBFDF8601BE0FFF7E7FD0246FB68D31AB5
:10128C00022B14D97B681B689B6803F00103012BAC
:10129C000DD17B689B6A43F010027B689A627B6875
:1012AC00DB6A43F001027B68DA62012307E07B68AA
:1012BC001B689B6803F00103012BDCD0002318464C
:1012CC001037BD4680BD000080B485B000AF78609B
:1012DC007B6803F00703FB600C4BDB68BB60BA68F0
:1012EC004FF6FF031340BB60FB681A02BB68134345
:1012FC0043F0BF6343F40033BB60044ABB68D36064
:10130C0000BF1437BD4680BC704700BF00ED00E045
:10131C0080B400AF044BDB681B0A03F007031846CC
:10132C00BD4680BC704700BF00ED00E080B483B0C8
:10133C0000AF0346FB7197F90730002B0BDBFB79F1
:10134C0003F01F02064997F907305B09012000FAE8
:10135C0002F241F8232000BF0C37BD4680BC704719
:10136C0000E100E080B483B000AF03463960FB714C
:10137C0097F90730002B0ADB3B68DAB20C4997F976
:10138C0007301201D2B20B4483F800230AE03B6809
:10139C00DAB20849FB7903F00F03043B1201D2B215
:1013AC000B441A7600BF0C37BD4680BC704700BF9B
:1013BC0000E100E000ED00E080B489B000AFF8601F
:1013CC00B9607A60FB6803F00703FB61FB69C3F14A
:1013DC000703042B28BF0423BB61FB690433062BD2
:1013EC0002D9FB69033B00E000237B614FF0FF3225
:1013FC00BB6902FA03F3DA43BB681A407B699A4073
:10140C004FF0FF317B6901FA03F3D9437B680B4042
:10141C00134318462437BD4680BC704780B582B054
:10142C0000AF78607B68013BB3F1807F01D301236F
:10143C000FE00A4A7B68013B53600F214FF0FF30ED
:10144C00FFF790FF054B00229A60044B07221A60AD
:10145C00002318460837BD4680BD00BF10E000E0F1
:10146C0080B582B000AF78607868FFF72DFF00BFC1
:10147C000837BD4680BD80B586B000AF0346B96065
:10148C007A60FB7300237B61FFF742FF78617A6817
:10149C00B9687869FFF790FF024697F90F3011464B
:1014AC001846FFF75FFF00BF1837BD4680BD80B5FB
:1014BC0082B000AF0346FB7197F907301846FFF76F
:1014CC0035FF00BF0837BD4680BD80B582B000AF88
:1014DC0078607868FFF7A2FF034618460837BD46C8
:1014EC0080BD000080B485B000AF78600023FB6045
:1014FC007B68002B01D1012343E07B681B681A46F3
:10150C00224B1344224AA2FB03231B099A007B683B
:10151C001A647B681F4ADA637B68022283F82120F5
:10152C007B681B681B68FB60FB6823F47F5323F00C
:10153C003003FB607B685A687B689B681A437B6846
:10154C00DB681A437B681B691A437B685B691A4327
:10155C007B689B691A437B68DB691343FA68134306
:10156C00FB607B681B68FA681A607B6800229A63D0
:10157C007B68012283F821207B68002283F82020DD
:10158C00002318461437BD4680BC7047F8FFFDBFDA
:10159C00CDCCCCCC0000024080B586B000AFF8605A
:1015AC00B9607A603B600023FB75FB6893F82030D0
:1015BC00012B01D102234BE0FB68012283F8202090
:1015CC00FB6893F82130DBB2012B3AD1FB68022285
:1015DC0083F82120FB6800229A63FB681B681A6859
:1015EC00FB681B6822F001021A603B687A68B968D4
:1015FC00F86800F037F9FB68DB6A002B08D0FB6851
:10160C001B681A68FB681B6842F00E021A600FE038
:10161C00FB681B681A68FB681B6822F004021A60DE
:10162C00FB681B681A68FB681B6842F00A021A60A8
:10163C00FB681B681A68FB681B6842F001021A60A1
:10164C0005E0FB68002283F820200223FB75FB7D5C
:10165C0018461837BD4680BD80B584B000AF7860A1
:10166C007B68DB6B1B68FB607B681B681B68BB6063
:10167C007B681B6C04229A40FB681340002B4FD0F4
:10168C00BB6803F00403002B4AD07B681B681B6803
:10169C0003F02003002B07D17B681B681A687B685A
:1016AC001B6822F004021A607B681B68664A93422E
:1016BC0029D07B681B68654A934222D07B681B68E3
:1016CC00634A93421AD07B681B68624A934212D0D9
:1016DC007B681B68604A93420AD07B681B685F4A30
:1016EC00934202D14FF480030EE04FF080630BE085
:1016FC004FF4802308E04FF4804305E04FF48063FF
:10170C0002E0402300E00423554A53607B68DB6A07
:10171C00002B00F094807B68DB6A786898478EE039
:10172C007B681B6C02229A40FB681340002B56D03E
:10173C00BB6803F00203002B51D07B681B681B684D
:10174C0003F02003002B0BD17B681B681A687B68A5
:10175C001B6822F00A021A607B68012283F82120A0
:10176C007B681B68384A934229D07B681B68374AD0
:10177C00934222D07B681B68354A93421AD07B680F
:10178C001B68344A934212D07B681B68324A9342DE
:10179C000AD07B681B68314A934202D14FF4001384
:1017AC000EE04FF000730BE04FF4003308E04FF401
:1017BC00005305E04FF4007302E0202300E0022305
:1017CC00274A53607B68002283F820207B689B6A41
:1017DC00002B34D07B689B6A786898472FE07B6835
:1017EC001B6C08229A40FB681340002B28D0BB6866
:1017FC0003F00803002B23D07B681B681A687B68F6
:10180C001B6822F00E021A607B681A6C7B68DB6B1B
:10181C00012101FA02F25A607B6801229A637B680B
:10182C00012283F821207B68002283F820207B682A
:10183C001B6B002B04D07B681B6B7868984700BF30
:10184C0000BF1037BD4680BD080002401C0002409E
:10185C003000024044000240580002406C0002403C
:10186C000000024080B485B000AFF860B9607A60C7
:10187C003B60FB681A6CFB68DB6B012101FA02F21E
:10188C005A60FB681B683A685A60FB685B68102BEF
:10189C0008D1FB681B687A689A60FB681B68BA6899
:1018AC00DA6007E0FB681B68BA689A60FB681B6823
:1018BC007A68DA6000BF1437BD4680BC7047000000
:1018CC0080B48BB000AF7860396000237B6200235A
:1018DC003B6269E101227B6A02FA03F3FB613B681C
:1018EC001B68FA691340BB61BA69FB699A4240F004
:1018FC0058813B685B689A4A93425ED0984A9342FF
:10190C0075D8984A934258D0964A93426FD8964AC3
:10191C00934252D0944A934269D8944A93424CD001
:10192C00924A934263D8924A934246D0904A934249
:10193C005DD8122B2AD8122B59D801A252F823F0B9
:10194C00C7190008A1190008B3190008F5190008F7
:10195C00FB190008FB190008FB190008FB1900080B
:10196C00FB190008FB190008FB190008FB190008FB
:10197C00FB190008FB190008FB190008FB190008EB
:10198C00FB190008A9190008BD190008794A9342EF
:10199C0013D02CE03B68DB683B6229E03B68DB68DA
:1019AC0004333B6224E03B68DB6808333B621FE096
:1019BC003B68DB680C333B621AE03B689B68002B8E
:1019CC0002D104233B6213E03B689B68012B05D1D9
:1019DC0008233B627B68FA691A6109E008233B62C1
:1019EC007B68FA695A6103E000233B6200E000BFA8
:1019FC00BB69FF2B01D87B6801E07B6804337B61FA
:101A0C00BB69FF2B02D87B6A9B0002E07B6A083B18
:101A1C009B003B617B691A680F213B6901FA03F358
:101A2C00DB431A40396A3B6901FA03F31A437B69B9
:101A3C001A603B685B6803F08053002B00F0B180A8
:101A4C004D4B9B694C4A43F0010393614A4B9B6994
:101A5C0003F00103BB60BB68484A7B6A9B080233F6
:101A6C0052F82330FB607B6A03F003039B000F22C8
:101A7C0002FA03F3DB43FA681340FB607B68404ACD
:101A8C00934213D07B683F4A93420DD07B683E4A09
:101A9C00934207D07B683D4A934201D1032306E071
:101AAC00042304E0022302E0012300E000237A6A0D
:101ABC0002F0030292009340FA681343FB602F4933
:101ACC007B6A9B080233FA6841F823203B685B6809
:101ADC0003F48013002B06D02D4B9A682C49BB695C
:101AEC0013438B6006E02A4B9A68BB69DB43284999
:101AFC0013408B603B685B6803F40013002B06D02B
:101B0C00234BDA682249BB691343CB6006E0204BB8
:101B1C00DA68BB69DB431E491340CB603B685B68EA
:101B2C0003F40033002B06D0194B5A681849BB69D3
:101B3C0013434B6006E0164B5A68BB69DB431449F0
:101B4C0013404B603B685B6803F48033002B21D05F
:101B5C000F4B1A680E49BB6913430B6021E000BFA1
:101B6C000000321000003110000022100000211083
:101B7C000000121000001110001002400000014083
:101B8C0000080140000C014000100140001401400D
:101B9C00000401400B4B1A68BB69DB430949134035
:101BAC000B607B6A01337B623B681A687B6A22FAA2
:101BBC0003F3002B7FF48EAE00BF00BF2C37BD4665
:101BCC0080BC70470004014080B483B000AF7860E3
:101BDC000B467B8013467B707B78002B03D07A8876
:101BEC007B681A6103E07B881A047B681A6100BF6A
:101BFC000C37BD4680BC704780B485B000AF7860B0
:101C0C000B467B807B68DB68FB607A88FB68134043
:101C1C001A04FB68D9437B880B401A437B681A6112
:101C2C0000BF1437BD4680BC7047000080B582B041
:101C3C0000AF0346FB80084B5A69FB881340002B0E
:101C4C0006D0054AFB885361FB881846FEF71AFB41
:101C5C0000BF0837BD4680BD0004014080B584B08C
:101C6C0000AF78607B68002B01D101232BE17B68EE
:101C7C0093F83D30DBB2002B06D17B68002283F851
:101C8C003C207868FEF76AFF7B68242283F83D20AD
:101C9C007B681B681A687B681B6822F001021A605B
:101CAC007B681B681A687B681B6842F400421A60E8
:101CBC007B681B681A687B681B6822F400421A60F8
:101CCC0001F032F8F8607B685B68814A934207D870
:101CDC00FB68804A934294BF01230023DBB206E0E9
:101CEC00FB687D4A934294BF01230023DBB2002B97
:101CFC0001D00123E7E0FB68784AA2FB03239B0C8D
:101D0C00BB607B681B685B6823F03F017B681B68CA
:101D1C00BA680A435A607B681B681B6A23F03F0150
:101D2C007B685B686A4A934202D8BB68013309E05E
:101D3C00BB684FF4967202FB03F3694AA2FB0323C0
:101D4C009B0901337A6812680B4313627B681B682A
:101D5C00DB6923F44F4222F0FF027B685B685C492D
:101D6C008B4219D8FB68591E7B685B685B00B1FB22
:101D7C00F3F3591C40F6FC730B40002B0AD0FB68A4
:101D8C00591E7B685B685B00B1FBF3F30133C3F353
:101D9C000B0351E004234FE07B689B68002B11D1AF
:101DAC00FB68581E7B6859680B465B000B44B0FB04
:101DBC00F3F30133C3F30B03002B0CBF01230023FC
:101DCC00DBB212E0FB68581E7B6859680B469B001F
:101DDC000B4499000B44B0FBF3F30133C3F30B0337
:101DEC00002B0CBF01230023DBB2002B01D00123FD
:101DFC0022E07B689B68002B0ED1FB68581E7B6829
:101E0C0059680B465B000B44B0FBF3F30133C3F38F
:101E1C000B0343F400430FE0FB68581E7B685968C2
:101E2C000B469B000B4499000B44B0FBF3F30133BE
:101E3C00C3F30B0343F44043796809681343CB6144
:101E4C007B681B681B6823F0C0017B68DA697B68C0
:101E5C001B6A1A437B681B680A431A607B681B6801
:101E6C009B6823F4034323F0FF037A6811697A68B3
:101E7C00D26811437A6812680B4393607B681B68C5
:101E8C00DB6823F0FF017B685A697B689B691A4306
:101E9C007B681B680A43DA607B681B681A687B687E
:101EAC001B6842F001021A607B6800221A647B688E
:101EBC00202283F83D207B6800221A637B68002275
:101ECC0083F83E20002318461037BD4680BD00BF66
:101EDC00A08601007F841E00FF083D0083DE1B43AB
:101EEC00D34D621080B588B002AFF8607A601A46A4
:101EFC000B467B8113463B81FEF7A6FF7861FB689E
:101F0C0093F83D30DBB2202B40F0E0807B690093EE
:101F1C00192301227049F86800F064F90346002B7C
:101F2C0001D00223D3E0FB6893F83C30012B01D1A4
:101F3C000223CCE0FB68012283F83C20FB681B6881
:101F4C001B6803F00103012B07D0FB681B681A68A0
:101F5C00FB681B6842F001021A60FB681B681A6878
:101F6C00FB681B6822F400621A60FB68212283F86C
:101F7C003D20FB68102283F83E20FB6800221A6487
:101F8C00FB687A685A62FB683A895A85FB685B8DF4
:101F9C009AB2FB681A85FB68504ADA6279897B69C8
:101FAC003A6AF86800F09CF80346002B01D0012334
:101FBC008DE000233B61FB681B685B693B61FB6840
:101FCC001B689B693B613B6966E07A69396AF86812
:101FDC0000F022FA0346002B0DD0FB681B6C042B7F
:101FEC0007D1FB681B681A68FB681B6842F4007217
:101FFC001A6001236BE0FB685B6A1A78FB681B684C
:10200C001A61FB685B6A5A1CFB685A62FB685B8D41
:10201C009BB2013B9AB2FB685A85FB681B8D013B56
:10202C009AB2FB681A85FB681B685B6903F00403B2
:10203C00042B1BD1FB681B8D002B17D0FB685B6A34
:10204C001A78FB681B681A61FB685B6A5A1CFB6890
:10205C005A62FB685B8D9BB2013B9AB2FB685A8556
:10206C00FB681B8D013B9AB2FB681A857A69396A49
:10207C00F86800F019FA0346002B0DD0FB681B6CB6
:10208C00042B07D1FB681B681A68FB681B6842F4B9
:10209C0000721A6001231AE0FB681B8D002B94D18F
:1020AC00FB681B681A68FB681B6842F400721A60B4
:1020BC00FB68202283F83D20FB68002283F83E2039
:1020CC00FB68002283F83C20002300E00223184622
:1020DC001837BD4680BD00BF020010000000FFFF96
:1020EC0080B588B002AFF8607A603B600B467B81AC
:1020FC00FB68DB6A7B617B69082B06D07B69012B53
:10210C0003D07B6913F5803F08D1FB681B681A6804
:10211C00FB681B6842F480721A600BE0FB681B6B57
:10212C00122B07D1FB681B681A68FB681B6842F40A
:10213C0080721A603B6800937B6800224FF001119B
:10214C00F86800F04FF80346002B0DD0FB681B68B5
:10215C001B6803F48073B3F5807F03D1FB684FF4E5
:10216C0000721A64032335E0FB681B69B3F5804FDA
:10217C0008D17B89DBB21A46FB681B6802F0FE02B1
:10218C001A611BE07B89DB11DBB203F00603DBB2C7
:10219C0063F00F03DAB2FB681B681A613B687A685C
:1021AC000E49F86800F098F80346002B01D0012383
:1021BC0010E07B89DAB2FB681B681A613B687A68AD
:1021CC000749F86800F088F80346002B01D001237A
:1021DC0000E0002318461837BD4680BD08000100FA
:1021EC000200010080B584B000AFF860B9603B60BC
:1021FC001346FB7148E03B68B3F1FF3F44D0FEF758
:10220C0023FE0246BB69D31A3A689A4202D33B6852
:10221C00002B39D1BB681B0CDBB2012B0DD1FB6839
:10222C001B685B69DA43BB6813409BB2002B0CBF85
:10223C0001230023DBB21A460CE0FB681B689B6988
:10224C00DA43BB6813409BB2002B0CBF0123002365
:10225C00DBB21A46FB799A4216D1FB6800221A634C
:10226C00FB68202283F83D20FB68002283F83E2087
:10227C00FB681B6C43F02002FB681A64FB680022AD
:10228C0083F83C20012323E0BB681B0CDBB2012B41
:10229C000DD1FB681B685B69DA43BB6813409BB2CA
:1022AC00002B0CBF01230023DBB21A460CE0FB68A9
:1022BC001B689B69DA43BB6813409BB2002B0CBFB5
:1022CC0001230023DBB21A46FB799A4293D00023F8
:1022DC0018461037BD4680BD80B584B000AFF8609D
:1022EC00B9607A603B6071E0FB681B685B6903F462
:1022FC008063B3F5806F23D1FB681B681A68FB6899
:10230C001B6842F400721A60FB681B686FF48062F1
:10231C005A61FB6800221A63FB68202283F83D2077
:10232C00FB68002283F83E20FB681B6C43F0040220
:10233C00FB681A64FB68002283F83C20012367E0E9
:10234C007B68B3F1FF3F41D0FEF77EFD02463B6850
:10235C00D31A7A689A4202D37B68002B36D1BB68B9
:10236C001B0CDBB2012B0CD1FB681B685B69DA43DD
:10237C00BB6813409BB2002B14BF01230023DBB2BC
:10238C000BE0FB681B689B69DA43BB6813409BB28C
:10239C00002B14BF01230023DBB2002B16D0FB68EB
:1023AC0000221A63FB68202283F83D20FB68002280
:1023BC0083F83E20FB681B6C43F02002FB681A6418
:1023CC00FB68002283F83C20012321E0BB681B0C36
:1023DC00DBB2012B0CD1FB681B685B69DA43BB6871
:1023EC0013409BB2002B14BF01230023DBB20BE084
:1023FC00FB681B689B69DA43BB6813409BB2002BDC
:10240C0014BF01230023DBB2002B7FF46DAF00233C
:10241C0018461037BD4680BD80B584B000AFF8605B
:10242C00B9607A6034E0F86800F086F80346002B57
:10243C0001D0012334E0BB68B3F1FF3F28D0FEF795
:10244C0003FD02467B68D31ABA689A4202D3BB6872
:10245C00002B1DD1FB681B685B6903F08003802B8C
:10246C0016D0FB6800221A63FB68202283F83D20FB
:10247C00FB68002283F83E20FB681B6C43F02002B3
:10248C00FB681A64FB68002283F83C20012307E0F8
:10249C00FB681B685B6903F08003802BC3D10023AE
:1024AC0018461037BD4680BD80B584B000AFF860CB
:1024BC00B9607A6034E0F86800F03EF80346002B0F
:1024CC0001D0012334E0BB68B3F1FF3F28D0FEF705
:1024DC00BBFC02467B68D31ABA689A4202D3BB682B
:1024EC00002B1DD1FB681B685B6903F00403042BF4
:1024FC0016D0FB6800221A63FB68202283F83D206B
:10250C00FB68002283F83E20FB681B6C43F0200222
:10251C00FB681A64FB68002283F83C20012307E067
:10252C00FB681B685B6903F00403042BC3D1002315
:10253C0018461037BD4680BD80B483B000AF7860BC
:10254C007B681B685B6903F48063B3F5806F1BD1F8
:10255C007B681B686FF480625A617B6800221A6387
:10256C007B68202283F83D207B68002283F83E2084
:10257C007B681B6C43F004027B681A647B68002246
:10258C0083F83C20012300E0002318460C37BD469D
:10259C0080BC704780B586B000AF78607B68002B3C
:1025AC0001D1012372E27B681B6803F00103002B4D
:1025BC0000F08780924B5B6803F00C03042B0CD06B
:1025CC008F4B5B6803F00C03082B12D18C4B5B68B0
:1025DC0003F48033B3F5803F0BD1894B1B6803F4B4
:1025EC000033002B6CD07B685B68002B68D1012317
:1025FC004CE27B685B68B3F5803F06D1804B1B686F
:10260C007F4A43F4803313602EE07B685B68002BB9
:10261C000CD17B4B1B687A4A23F480331360784BC4
:10262C001B68774A23F4802313601DE07B685B688A
:10263C00B3F5A02F0CD1724B1B68714A43F4802365
:10264C0013606F4B1B686E4A43F4803313600BE0CE
:10265C006B4B1B686A4A23F480331360684B1B680E
:10266C00674A23F4802313607B685B68002B13D0CC
:10267C00FEF7EAFB386108E0FEF7E6FB02463B6931
:10268C00D31A642B01D9032300E25D4B1B6803F4BE
:10269C000033002BF0D014E0FEF7D6FB386108E0D5
:1026AC00FEF7D2FB02463B69D31A642B01D90323F4
:1026BC00ECE1534B1B6803F40033002BF0D100E02A
:1026CC0000BF7B681B6803F00203002B63D04C4BEC
:1026DC005B6803F00C03002B0BD0494B5B6803F0D9
:1026EC000C03082B1CD1464B5B6803F48033002B86
:1026FC0016D1434B1B6803F00203002B05D07B68FB
:10270C001B69012B01D00123C0E13D4B1B6823F059
:10271C00F8027B685B69DB00394913430B603AE0D4
:10272C007B681B69002B20D0364B01221A60FEF708
:10273C008BFB386108E0FEF787FB02463B69D31A36
:10274C00022B01D90323A1E12D4B1B6803F00203DB
:10275C00002BF0D02A4B1B6823F0F8027B685B69D6
:10276C00DB00274913430B6015E0264B00221A604F
:10277C00FEF76AFB386108E0FEF766FB02463B6930
:10278C00D31A022B01D9032380E11D4B1B6803F0E4
:10279C000203002BF0D17B681B6803F00803002BAD
:1027AC003AD07B689B69002B19D0174B01221A6019
:1027BC00FEF74AFB386108E0FEF746FB02463B6930
:1027CC00D31A022B01D9032360E10D4B5B6A03F092
:1027DC000203002BF0D0012000F0CEFA1CE00A4BD3
:1027EC0000221A60FEF730FB38610FE0FEF72CFB7D
:1027FC0002463B69D31A022B08D9032346E100BFDA
:10280C00001002400000424280044242924B5B6A3C
:10281C0003F00203002BE9D17B681B6803F004036F
:10282C00002B00F0A6800023FB758B4BDB6903F0BB
:10283C008053002B0DD1884BDB69874A43F08053C2
:10284C00D361854BDB6903F08053BB60BB6801230C
:10285C00FB75824B1B6803F48073002B18D17F4BE4
:10286C001B687E4A43F480731360FEF7EDFA3861FF
:10287C0008E0FEF7E9FA02463B69D31A642B01D94A
:10288C00032303E1754B1B6803F48073002BF0D01A
:10289C007B68DB68012B06D16F4B1B6A6E4A43F0D9
:1028AC00010313622DE07B68DB68002B0CD16A4BB3
:1028BC001B6A694A23F001031362674B1B6A664A61
:1028CC0023F0040313621CE07B68DB68052B0CD13E
:1028DC00614B1B6A604A43F0040313625E4B1B6A34
:1028EC005D4A43F0010313620BE05B4B1B6A5A4ACF
:1028FC0023F001031362584B1B6A574A23F004035D
:10290C0013627B68DB68002B15D0FEF79DFA3861EB
:10291C000AE0FEF799FA02463B69D31A41F2883273
:10292C00934201D90323B1E04B4B1B6A03F0020322
:10293C00002BEED014E0FEF787FA38610AE0FEF7C0
:10294C0083FA02463B69D31A41F28832934201D989
:10295C0003239BE0404B1B6A03F00203002BEED1D8
:10296C00FB7D012B05D13C4BDB693B4A23F08053AB
:10297C00D3617B68DB69002B00F08780364B5B688A
:10298C0003F00C03082B61D07B68DB69022B46D16A
:10299C00334B00221A60FEF757FA386108E0FEF755
:1029AC0053FA02463B69D31A022B01D903236DE07B
:1029BC00294B1B6803F00073002BF0D17B681B6A5A
:1029CC00B3F5803F08D1244B5B6823F400327B685D
:1029DC009B68214913434B601F4B5B6823F47412B3
:1029EC007B68196A7B685B6A0B431B4913434B601A
:1029FC001B4B01221A60FEF727FA386108E0FEF73C
:102A0C0023FA02463B69D31A022B01D903233DE07A
:102A1C00114B1B6803F00073002BF0D035E0104B0A
:102A2C0000221A60FEF710FA386108E0FEF70CFA83
:102A3C0002463B69D31A022B01D9032326E0064B2D
:102A4C001B6803F00073002BF0D11EE07B68DB6980
:102A5C00012B07D1012319E0001002400070004047
:102A6C00600042420B4B5B68FB60FB6803F48032F6
:102A7C007B681B6A9A4206D1FB6803F470127B6870
:102A8C005B6A9A4201D0012300E0002318461837F4
:102A9C00BD4680BD0010024080B584B000AF7860A8
:102AAC0039607B68002B01D10123D0E06A4B1B6895
:102ABC0003F007033A689A4210D9674B1B6823F05E
:102ACC00070265493B6813430B60634B1B6803F0BB
:102ADC0007033A689A4201D00123B8E07B681B686F
:102AEC0003F00203002B20D07B681B6803F0040367
:102AFC00002B05D0594B5B68584A43F4E063536094
:102B0C007B681B6803F00803002B05D0534B5B68F4
:102B1C00524A43F460535360504B5B6823F0F0020D
:102B2C007B689B684D4913434B607B681B6803F0C3
:102B3C000103002B40D07B685B68012B07D1474B0E
:102B4C001B6803F40033002B15D101237FE07B6855
:102B5C005B68022B07D1414B1B6803F00073002B01
:102B6C0009D1012373E03D4B1B6803F00203002BDA
:102B7C0001D101236BE0394B5B6823F003027B68C6
:102B8C005B68364913434B60FEF75EF9F8600AE068
:102B9C00FEF75AF90246FB68D31A41F28832934287
:102BAC0001D9032353E02D4B5B6803F00C027B68C7
:102BBC005B689B009A42EBD1274B1B6803F0070321
:102BCC003A689A4210D2244B1B6823F00702224920
:102BDC003B6813430B60204B1B6803F007033A68F8
:102BEC009A4201D0012332E07B681B6803F0040396
:102BFC00002B08D0194B5B6823F4E0627B68DB6820
:102C0C00164913434B607B681B6803F00803002BC9
:102C1C0009D0124B5B6823F460527B681B69DB00A4
:102C2C000E4913434B6000F021F802460B4B5B68D6
:102C3C001B0903F00F030A49CB5C22FA03F3094A80
:102C4C001360094B1B681846FEF7BCF800231846A6
:102C5C001037BD4680BD00BF00200240001002406E
:102C6C007C3A00082C0600203006002080B487B087
:102C7C0000AF0023FB600023BB6000237B610023BB
:102C8C007B6000233B611E4B5B68FB60FB6803F0C1
:102C9C000C03042B02D0082B03D027E0194B3B610B
:102CAC0027E0FB689B0C03F00F03174AD35C7B6097
:102CBC00FB6803F48033002B10D0114B5B685B0C6A
:102CCC0003F00103114AD35CBB607B680D4A03FB24
:102CDC0002F2BB68B2FBF3F37B6104E07B680C4A45
:102CEC0002FB03F37B617B693B6102E0054B3B61BB
:102CFC0000BF3B6918461C37BD4680BC704700BFFF
:102D0C000010024000127A00943A0008A43A00081D
:102D1C0000093D0080B400AF024B1B681846BD464D
:102D2C0080BC70472C06002080B500AFFFF7F2FF87
:102D3C000246054B5B681B0A03F007030349CB5C97
:102D4C0022FA03F3184680BD001002408C3A0008AA
:102D5C0080B500AFFFF7DEFF0246054B5B68DB0A70
:102D6C0003F007030349CB5C22FA03F3184680BD3A
:102D7C00001002408C3A000880B485B000AF786037
:102D8C000A4B1B680A4AA2FB03235B0A7A6802FB04
:102D9C0003F3FB6000BFFB685A1EFA60002BF9D1ED
:102DAC0000BF00BF1437BD4680BC70472C06002006
:102DBC00D34D621080B586B000AF786000233B61C4
:102DCC000023FB607B681B6803F00103002B7DD0A4
:102DDC000023FB754F4BDB6903F08053002B0DD1A7
:102DEC004C4BDB694B4A43F08053D361494BDB6955
:102DFC0003F08053BB60BB680123FB75464B1B681B
:102E0C0003F48073002B18D1434B1B68424A43F4E4
:102E1C0080731360FEF718F8386108E0FEF714F8B9
:102E2C0002463B69D31A642B01D903236DE03A4B5C
:102E3C001B6803F48073002BF0D0364B1B6A03F431
:102E4C004073FB60FB68002B2ED07B685B6803F43F
:102E5C004073FA689A4227D02E4B1B6A23F44073B6
:102E6C00FB602E4B01221A602C4B00221A60294A5F
:102E7C00FB681362FB6803F00103002B14D0FDF711
:102E8C00E3FF38610AE0FDF7DFFF02463B69D31A26
:102E9C0041F28832934201D9032336E01D4B1B6A61
:102EAC0003F00203002BEED01A4B1B6A23F4407282
:102EBC007B685B68174913430B62FB7D012B05D1C3
:102ECC00144BDB69134A23F08053D3617B681B6876
:102EDC0003F00203002B08D00E4B5B6823F4404236
:102EEC007B689B680B4913434B607B681B6803F042
:102EFC001003002B08D0074B5B6823F480027B681F
:102F0C00DB68044913434B60002318461837BD4651
:102F1C0080BD00BF001002400070004040044242DF
:102F2C0080B582B000AF78607B68002B01D10123A3
:102F3C0042E07B6893F84130DBB2002B06D17B6812
:102F4C00002283F840207868FDF746FE7B68242237
:102F5C0083F841207B681B68DA687B681B6822F465
:102F6C000052DA60786800F081FB7B681B681A6994
:102F7C007B681B6822F490421A617B681B685A6953
:102F8C007B681B6822F02A025A617B681B68DA682E
:102F9C007B681B6842F40052DA607B6800225A643A
:102FAC007B68202283F841207B68202283F8422012
:102FBC007B6800225A63002318460837BD4680BD43
:102FCC0080B58AB002AFF860B9603B601346FB80F5
:102FDC0000237B61FB6893F84130DBB2202B6DD171
:102FEC00BB68002B02D0FB88002B01D1012366E0CB
:102FFC00FB6800225A64FB68212283F84120FDF70C
:10300C0023FF7861FB68FA889A84FB68FA88DA8473
:10301C00FB689B68B3F5805F08D1FB681B69002BCC
:10302C0004D10023FB61BB68BB6103E0BB68FB619F
:10303C000023BB612AE03B6800937B69002280215E
:10304C00F86800F080F90346002B01D0032336E02A
:10305C00FB69002B0BD1BB691B881A46FB681B68EC
:10306C00C2F308025A60BB690233BB6107E0FB691B
:10307C001A78FB681B685A60FB690133FB61FB68BB
:10308C00DB8C9BB2013B9AB2FB68DA84FB68DB8C6D
:10309C009BB2002BCFD13B6800937B69002240216F
:1030AC00F86800F050F90346002B01D0032306E02A
:1030BC00FB68202283F84120002300E002231846FD
:1030CC002037BD4680BD80B584B000AFF860B960D4
:1030DC001346FB80FB6893F84230DBB2202B12D1F5
:1030EC00BB68002B02D0FB88002B01D101230BE025
:1030FC00FB6800221A63FB881A46B968F86800F06E
:10310C0091F9034600E0022318461037BD4680BDF6
:10311C0080B483B000AF786000BF0C37BD4680BC74
:10312C00704780B483B000AF786000BF0C37BD46E9
:10313C0080BC704780B483B000AF78600B467B8056
:10314C0000BF0C37BD4680BC704780B59CB000AF4B
:10315C0078607B685B6AFB667B681B681B6803F0A6
:10316C002003002B72D1FB6E0022DA85FB6E1B68EC
:10317C000C33FB64FB6C53E8003FBB64BB6C23F467
:10318C008073BB66FB6E1B680C33BA6EBA657B65CD
:10319C00796DBA6D41E800233B653B6D002BE5D1A1
:1031AC00FB6E1B681433BB63BB6B53E8003F7B6344
:1031BC007B6B23F001037B66FB6E1B6814337A6E0A
:1031CC007A643B64396C7A6C41E80023FB63FB6BDB
:1031DC00002BE5D1FB6E1B6814337B627B6A53E8D2
:1031EC00003F3B623B6A23F040033B66FB6E1B686F
:1031FC0014333A6E3A63FB62F96A3A6B41E8002386
:10320C00BB62BB6A002BE5D1FB6E202283F8422007
:10321C00FB6E1B6B012B19D1FB6E1B680C333B61D6
:10322C003B6953E8003FFB60FB6823F01003FB6530
:10323C00FB6E1B680C33FA6DFA61BB61B969FA69F4
:10324C0041E800237B617B69002BE5D1FB6E0022FA
:10325C005A63FB6E1B6B012B06D1FB6E9B8D1946C3
:10326C00F86EFFF767FF02E0F86EFDF733F800BF6A
:10327C007037BD4680BD80B584B000AF78607B6888
:10328C005B6AFB60FB6801225A63FB681B6B012BBA
:10329C0008D1FB689B8D5B089BB21946F868FFF759
:1032AC0049FF02E0F868FFF733FF00BF1037BD4657
:1032BC0080BD80B584B000AF78600023FB607B6874
:1032CC005B6ABB60BB681B685B6903F08003002B07
:1032DC0014BF01230023DBB2FB60BB6893F84130C1
:1032EC00DBB2212B08D1FB68002B05D0BB68002278
:1032FC00DA84B86800F030F9BB681B685B6903F0CE
:10330C004003002B14BF01230023DBB2FB60BB681E
:10331C0093F84230DBB2222B08D1FB68002B05D08E
:10332C00BB680022DA85B86800F03DF9BB685B6CBD
:10333C0043F01002BB685A64B868FFF7F2FE00BF96
:10334C001037BD4680BD80B590B000AFF860B96055
:10335C003B601346FB7150E0BB6CB3F1FF3F4CD0AC
:10336C00BB6C002B07D0FDF76FFD02463B68D31AF0
:10337C00BA6C9A4241D2FB681B680C33BB62BB6AC5
:10338C0053E8003F7B627B6A23F4D073FB63FB68DA
:10339C001B680C33FA6B7A633B63396B7A6B41E8CD
:1033AC000023FB62FB6A002BE5D1FB681B6814331E
:1033BC007B617B6953E8003F3B613B6923F0010370
:1033CC00BB63FB681B681433BA6B3A62FB61F96927
:1033DC003A6A41E80023BB61BB69002BE5D1FB686D
:1033EC00202283F84120FB68202283F84220FB68CE
:1033FC00002283F8402003230FE0FB681B681A6847
:10340C00BB681340BA689A420CBF01230023DBB29D
:10341C001A46FB799A429FD0002318464037BD4686
:10342C0080BD000080B598B000AFF860B96013465D
:10343C00FB80BA68FB689A62FB68FA889A85FB681D
:10344C0000225A64FB68222283F84220FB68DB6B63
:10345C003E4A9A62FB68DB6B3D4ADA62FB68DB6BC7
:10346C003C4A1A63FB68DB6B00225A6307F10803C2
:10347C00FB65FB68D86BFB681B6804331946FB6D56
:10348C001A68FB88FEF788F800233B61FB681B6811
:10349C001B683B61FB681B685B683B613B69FB68B5
:1034AC001B69002B19D0FB681B680C333B643B6C0D
:1034BC0053E8003FFB63FB6B43F48073BB65FB6815
:1034CC001B680C33BA6DFA64BB64B96CFA6C41E8D6
:1034DC0000237B647B6C002BE5D1FB681B681433E9
:1034EC00FB62FB6A53E8003FBB62BB6A43F001031B
:1034FC007B65FB681B6814337A6DBA637B63796BED
:10350C00BA6B41E800233B633B6B002BE5D1FB68B6
:10351C001B681433BB61BB6953E8003F7B617B695B
:10352C0043F040033B65FB681B6814333A6D7A62C9
:10353C003B62396A7A6A41E80023FB61FB69002B24
:10354C00E5D1002318466037BD4680BD57310008D1
:10355C0083320008BF32000880B489B000AF7860B5
:10356C007B681B680C33FB60FB6853E8003FBB6057
:10357C00BB6823F0C003FB617B681B680C33FA69E2
:10358C00BA617B617969BA6941E800233B613B69A7
:10359C00002BE5D17B68202283F8412000BF243723
:1035AC00BD4680BC704780B495B000AF78607B6836
:1035BC001B680C337B637B6B53E8003F3B633B6BBB
:1035CC0023F49073FB647B681B680C33FA6C3A64CD
:1035DC00FB63F96B3A6C41E80023BB63BB6B002BBC
:1035EC00E5D17B681B6814333B623B6A53E8003FB0
:1035FC00FB61FB6923F00103BB647B681B6814331C
:10360C00BA6CFA62BB62B96AFA6A41E800237B625F
:10361C007B6A002BE5D17B681B6B012B19D17B6876
:10362C001B680C33FB60FB6853E8003FBB60BB6856
:10363C0023F010037B647B681B680C337A6CBA61D3
:10364C007B617969BA6941E800233B613B69002BD6
:10365C00E5D17B68202283F842207B6800221A6324
:10366C0000BF5437BD4680BC7047000080B584B0A5
:10367C0000AF78607B681B681B6923F440517B6842
:10368C00DA687B681B680A431A617B689A687B68F6
:10369C001B691A437B685B691343BB607B681B68BF
:1036AC00DB6823F4B05323F00C037A681268B96812
:1036BC000B43D3607B681B685B6923F440717B68A8
:1036CC009A697B681B680A435A617B681B682C4AA1
:1036DC00934203D1FFF73CFBF86002E0FFF724FBB9
:1036EC00F860FA6813469B0013449A001A447B68EE
:1036FC005B689B00B2FBF3F3224AA2FB03235B093A
:10370C001901FA6813469B0013449A001A447B680B
:10371C005B689B00B2FBF3F21A4BA3FB02035B0941
:10372C00642000FB03F3D31A1B013233154AA2FBAE
:10373C0003235B0903F0F0031944FA6813469B005A
:10374C0013449A001A447B685B689B00B2FBF3F24B
:10375C000C4BA3FB02035B09642000FB03F3D31A9D
:10376C001B013233074AA2FB03235B0903F00F0250
:10377C007B681B680A449A6000BF1037BD4680BD49
:10378C00003801401F85EB5180B584B000AFF86064
:10379C00B96011461A460B46FB711346BB71FB68A8
:1037AC003A7E9A70FB680822DA70FB68FA791A7014
:1037BC00FB68BA795A70FB68BA689A60FB68042295
:1037CC001A712820FDF74AFB3021F86800F047F801
:1037DC000520FDF743FB3021F86800F040F801208C
:1037EC00FDF73CFB3021F86800F039F80A20FDF7B2
:1037FC0035FB2021F86800F032F80A20FDF72EFB8B
:10380C002821F86800F02BF80120FDF727FB082190
:10381C00F86800F024F80120FDF720FB0121F8687E
:10382C0000F01DF80120FDF719FB0120FDF716FB38
:10383C000621F86800F013F80120FDF70FFBFB6878
:10384C001B7943F00803DBB21946F86800F007F85F
:10385C000120FDF703FB00BF1037BD4680BD80B5CE
:10386C0086B002AF78600B46FB70FB7823F00F0339
:10387C00FB73FB781B01BB73FB7B43F00C03DBB2CC
:10388C003B72FB7B43F00803DBB27B72BB7B43F0E8
:10389C000C03DBB2BB72BB7B43F00803DBB2FB72E5
:1038AC007B6898687B689B7899B207F1080264235F
:1038BC0000930423FEF716FB00BF1037BD4680BDF6
:1038CC0080B586B002AF78600B46FB70FB7823F0B6
:1038DC000F03FB73FB781B01BB73FB7B43F00D03E6
:1038EC00DBB23B72FB7B43F00903DBB27B72BB7B2D
:1038FC0043F00D03DBB2BB72BB7B43F00903DBB2BD
:10390C00FB727B6898687B689B7899B207F1080218
:10391C00642300930423FEF7E5FA00BF1037BD467D
:10392C0080BD000080B584B000AF78600B46FB70A2
:10393C001346BB700F4BFB607B685B78BA789A427E
:10394C0003D97B685B78013BBB70BB7810333B447D
:10395C0013F8042CFB781344DBB25BB263F07F03E7
:10396C005BB2DBB219467868FFF779FF00BF1037FE
:10397C00BD4680BD0040145480B582B000AF786065
:10398C00396007E03B685A1C3A601B781946786826
:10399C00FFF796FF3B681B78002BF3D100BF00BFED
:1039AC000837BD4680BD80B582B000AF786001217C
:1039BC007868FFF754FF0520FDF750FA002200212C
:1039CC007868FFF7AFFF00BF0837BD4680BD0346E0
:1039DC000244934200D1704703F8011BF9E7000041
:1039EC0070B500260C4D0D4C641BA410A64209D1D9
:1039FC0000F01AF800260A4D0A4C641BA410A642CB
:103A0C0005D170BD55F8043B98470136EEE755F8E3
:103A1C00043B98470136F2E7A83A0008A83A000898
:103A2C00A83A0008AC3A0008F8B500BFF8BC08BCCE
:103A3C009E467047F8B500BFF8BC08BC9E46704760
:103A4C005361766564000000537461727465642080
:103A5C0072656164696E670050617573696E6700A9
:103A6C0046696E6973682072656164696E670000EF
:103A7C000000000000000000010203040607080912
:103A8C0000000000010203040203040506070809F4
:0C3A9C000A0B0C0D0E0F101001020000B0
:043AA80031010008E0
:043AAC000D01000800
:103AB0000000000000000000000000000000000006
:103AC00000000000000000000000000001000000F5
:103AD00001000000000000000100000001000000E3
:103AE00000000000000000000000000001000000D5
:103AF00000000000000000000000000001000000C5
:103B000000000000010000000100000001000000B2
:103B100001000000010000000100000000000000A2
:103B20000000000001000000010000000100000092
:103B30000000000000000000000000000100000084
:103B40000100000001000000010000000000000072
:103B50000100000001000000010000000000000062
:103B60000100000001000000010000000100000051
:103B70000000000001000000010000000100000042
:103B80000100000001000000010000000000000032
:103B90000000000000000000000000000100000024
:103BA0000000000001000000000000000000000014
:103BB0000100000001000000000000000000000003
:103BC00000000000000000000000000001000000F4
:103BD00000000000000000000000000000000000E5
:103BE00001000000010000000000000001000000D2
:103BF00000000000000000000000000001000000C4
:103C000000000000010000000000000000000000B3
:103C100001000000000000000000000000000000A3
:103C20000000000001000000010000000100000091
:103C30000000000000000000010000000000000083
:103C40000000000000000000000000000000000074
:103C50000100000000000000010000000000000062
:103C60000000000000000000010000000100000052
:103C70000000000000000000000000000000000044
:103C80000100000001000000000000000100000031
:103C90000000000000000000010000000000000023
:103CA0000000000001000000000000000000000013
:103CB0000100000001000000010000000000000001
:103CC00000000000000000000100000001000000F2
:103CD00001000000010000000000000000000000E2
:103CE00001000000000000000100000001000000D1
:103CF00000000000000000000000000001000000C3
:103D000001000000000000000100000000000000B1
:103D100000000000010000000000000001000000A1
:103D20000000000000000000000000000100000092
:103D30000000000001000000010000000000000081
:103D40000100000000000000000000000100000071
:103D5000010000000100000001000000010000005F
:103D60000100000001000000000000000100000050
:103D70000000000001000000010000000000000041
:103D80000100000001000000000000000100000030
:103D90000000000001000000000000000100000021
:103DA0000000000000000000000000000000000013
:103DB0000100000000000000000000000000000002
:103DC00000000000000000000100000000000000F2
:103DD00001000000000000000000000000000000E2
:103DE00001000000010000000000000000000000D1
:103DF00000000000000000000100000001000000C1
:103E000000000000010000000000000000000000B1
:103E100001000000000000000000000001000000A0
:103E20000000000000000000010000000100000090
:103E30000100000000000000000000000000000081
:103E4000010000000100000001000000010000006E
:103E50000000000000000000010000000000000061
:103E60000100000001000000000000000000000050
:103E70000000000001000000010000000000000040
:103E80000000000000000000000000000100000031
:103E90000100000001000000000000000000000020
:103EA0000100000000000000000000000000000011
:103EB0000100000000000000010000000000000000
:103EC00001000000000000000100000000000000F0
:103ED00001000000010000000000000000000000E0
:103EE00001000000000000000100000001000000CF
:103EF00000000000010000000100000000000000C0
:103F000001000000000000000000000001000000AF
:103F1000010000000000000001000000010000009E
:103F2000010000000000000001000000000000008F
:103F3000010000000100000001000000010000007D
:103F4000010000000000000001000000000000006F
:103F5000010000000100000001000000000000005E
:103F6000000000000100000001000000000000004F
:103F7000010000000000000000000000010000003F
:103F8000010000000100000001000000000000002E
:103F90000100000000000000000000000000000020
:103FA000010000000100000001000000000000000E
:103FB00001000000000000000100000001000000FE
:103FC00000000000010000000100000001000000EE
:103FD00000000000010000000100000001000000DE
:103FE00000000000000000000100000001000000CF
:103FF00001000000010000000000000001000000BE
:1040000001000000010000000100000000000000AD
:10401000000000000100000001000000010000009D
:10402000000000000100000001000000000000008E
:10403000000000000100000001000000000000007E
:10404000010000000100000000000000010000006D
:10405000010000000100000001000000010000005C
:10406000000000000100000000000000010000004E
:10407000000000000100000000000000000000003F
:10408000000000000100000000000000010000002E
:104090000000000001000000202122232425262802
:1040A000292A2B2C2D2E2F30313233343536373808
:1040B000393A3B3C3D3E3F406162636465666768F8
:1040C000696A6B6C6D6E6F707172737475767778E8
:1040D000797A5B5C5D5E5F01010000000024F40002
:0840E0001000000001000000C7
:0400000508000D5989
:00000001FF
